:020000040000FA
:1000000051EF01F0D9CFE5FFE1CFD9FF00C0E5FF07
:1000100001C0E5FF02C0E5FF03C0E5FF04C0E5FF46
:1000200005C0E5FF06C0E5FF020EDBCF00F0030EC2
:10003000DBCF01F0040EDBCF02F05BEC00F0036AD3
:1000400003500024046EE86A03BEE8680120056ED0
:10005000E86A03BEE8680220066E04C0E9FF05C036
:10006000F3FF0650F0EC01F0046E045013E004506E
:100070000A0A06E1C00EE56E01EC01F0E65205D079
:100080000450E56EB1EC00F0E652032A0350800FF5
:100090005F0FD6E3E4CF06F0E4CF05F0E4CF04F041
:1000A000E4CF03F0E4CF02F0E4CF01F0E4CF00F0BE
:1000B000E4CFD9FF1200D9CFE5FFE1CFD9FF00C0CF
:1000C000E5FFBEEC01F0BEEC01F0BEEC01F0BEECD1
:1000D00001F0BEEC01F00FEE96F0EFCF00F00090D3
:1000E0000FEE96F000C0EFFF0FEE96F0EFCF00F0AE
:1000F00000920FEE96F000C0EFFF0FEE96F0EFCFFC
:1001000000F000940FEE96F000C0EFFF0FEE95F0B8
:10011000000EEF6E0FEEC1F00E0EEF6E380EE56EB4
:1001200001EC01F0E652060EE56E01EC01F0E6523C
:100130000F0EE56E01EC01F0E652030EE56E01ECE8
:1001400001F0E652010EE56E01EC01F0E652800E80
:10015000E56E01EC01F0E652E4CF00F0E4CFD9FF08
:100160001200D9CFE5FFE1CFD9FF00C0E5FF01C004
:10017000E5FF020EDBCF00F00FEE84F0EFCF01F0D1
:1001800001800FEE84F001C0EFFF0FEE84F0EFCF9F
:1001900001F001940FEE84F001C0EFFF0FEE83F049
:1001A00000C0EFFF0FEE84F0EFCF00F000820FEE03
:1001B00084F000C0EFFFD8EC01F00FEE84F0EFCF39
:1001C00000F000920FEE84F000C0EFFF0FEE84F01D
:1001D000EFCF00F000900FEE84F000C0EFFF0FEEC5
:1001E00084F0EFCF00F000940FEE84F000C0EFFF3A
:1001F000D8EC01F0E4CF01F0E4CF00F0E4CFD9FF78
:100200001200D9CFE5FFE1CFD9FF00C0E5FF01C063
:10021000E5FF020EDBCF00F00FEE84F0EFCF01F030
:1002200001900FEE84F001C0EFFF0FEE84F0EFCFEE
:1002300001F001940FEE84F001C0EFFF0FEE83F0A8
:1002400000C0EFFF0FEE84F0EFCF00F000820FEE62
:1002500084F000C0EFFFBEEC01F00FEE84F0EFCFB2
:1002600000F000920FEE84F000C0EFFF0FEE84F07C
:10027000EFCF00F000900FEE84F000C0EFFF0FEE24
:1002800084F0EFCF00F000940FEE84F000C0EFFF99
:10029000BEEC01F0E4CF01F0E4CF00F0E4CFD9FFF1
:1002A000120011EEFFF021EEFFF0F86AA68EA69C78
:1002B0001A0EF66E040EF76E000EF86E0900F5CFFA
:1002C00005F00900F5CF06F034D00900F5CF00F0B5
:1002D0000900F5CF01F00900F5CF02F0090009008F
:1002E000F5CFE9FF0900F5CFEAFF09000900090091
:1002F000F5CF03F00900F5CF04F009000900F6CFAF
:1003000007F0F7CF08F0F8CF09F000C0F6FF01C002
:10031000F7FF02C0F8FF03D00900F5CFEEFF030698
:10032000FBE20406F9E207C0F6FF08C0F7FF09C0C8
:10033000F8FF0506CAE20606C8E2A0EC01F0FFD706
:10034000000E026E030E016E640E006E0250E56E2A
:100350000150E56E0050E56E02EC00F0030EE12660
:10036000FFD71200446F75676C617320426172623F
:100370006F7361200A416D6172616C00D9CFE5FF36
:10038000E1CFD9FF00C0E5FF01C0E5FFC80E006E58
:10039000D8EC01F00050016E010601C000F00150E0
:1003A000F7E1E4CF01F0E4CF00F0E4CFD9FF120091
:1003B000D9CFE5FFE1CFD9FF00C0E5FF01C0E5FFE0
:1003C000190E006E0050016E010601C000F00150D0
:1003D000F9E1E4CF01F0E4CF00F0E4CFD9FF12005F
:1003E000E8AE04D0F3CFEAFFEE501200E8BC14EF01
:1003F00002F0E9CFF6FFF3CFF7FFF86E0900F550F2
:100400001200F2CFF6FFF29EA69EA69CE9CFA9FFAE
:10041000A680A850F6BEF28E120001002C04000047
:0E042000800000000100000001EF02F000006B
:020000040030CA
:0100010002FC
:0100030000FC
:020005008381F5
:00000001FF
