:020000040000FA
:10000000CCEF05F0D9CFE5FFE1CFD9FF00C0E5FF88
:1000100001C0E5FF02C0E5FF03C0E5FF04C0E5FF46
:1000200005C0E5FF06C0E5FF07C0E5FF08C0E5FF26
:1000300009C0E5FF0AC0E5FF0BC0E5FF0CC0E5FF06
:100040000DC0E5FF0EC0E5FF0FC0E5FF10C0E5FFE6
:10005000020EDBCF00F0030EDBCF01F0040EDBCF8E
:1000600002F0050EDBCF03F0060EDBCF04F0070E27
:10007000DBCF05F0080EDBCF06F0090EDBCF07F073
:10008000086A096A0A6A0B6A00500001886F015009
:10009000896F02508A6F03508B6F045000018C6F80
:1000A00005508D6F06508E6F07508F6F000188517D
:1000B00089118A118B1109E18FC0E9FF8EC0F4FF0D
:1000C0008DC0F3FF00018C514FD100018C518D1177
:1000D0008E118F1109E18BC0E9FF8AC0F4FF89C03E
:1000E000F3FF0001885140D100018A358B35006E45
:1000F000016A0136026A036A016A026A036A000140
:100100008E358F35026E190F046E000E0320800F9E
:10011000F36E0150800FF35C02E10050045C09E2D1
:100120008BC0E9FF8AC0F4FF89C0F3FF000188514A
:100130001BD10050190F046E000E0120800FF36ECA
:100140000350800FF35C02E10250045C09E28FC0AF
:10015000E9FF8EC0F4FF8DC0F3FF00018C5104D184
:1001600000018851046E8951056E7F0E8A15066E56
:10017000076A068E00018C510C6E8D510D6E7F0E3C
:100180008E150E6E0F6A0E8E00018B51800BE844A7
:10019000106E10500AE0071E061E051E046C05E1D5
:1001A000052A03E1062AD8B4072A00018F51800BE3
:1001B000E844106E10500AE00F1E0E1E0D1E0C6C4F
:1001C00005E10D2A03E10E2AD8B40F2A0350800F4F
:1001D000F36E0150800FF35C02E10050025C1BE201
:1001E0000250005C106E03500158105032E00BE6D4
:1001F000E86CD8900FBED8800F320E320D320C3220
:10020000010FF8E326D0D8900C360D360E360F3697
:10021000010FFAE31ED00050025C106E015003582B
:10022000105013E00BE6E86CD89007BED880073278
:10023000063205320432010FF8E307D0D8900436B5
:10024000053606360736010FFAE302C000F003C098
:1002500001F00C5004260D5005220E5006220F50BE
:100260000722D88007AED89010E3071E061E051E91
:10027000046C05E1052A03E1062AD8B4072A086AB6
:10028000096A0A6A800E0B6E0AD004500510061027
:10029000071005E1E96AF46AF36AE86A65D0045078
:1002A000026E0550036E06500C6E07500D6E000E68
:1002B0000D5C08E1800E0C5C05E1000E035C02E1C0
:1002C000000E025C09E204500426053606360736A5
:1002D000FF0E00260122E3D70450026E0550036E84
:1002E00006500C6E07500D6E10E004A006D0020EF2
:1002F0000426000E052206220722073407320632A2
:1003000005320432004A012AE7D70250046E035036
:10031000056E7F0E0C14066E0D50076EE86A0130F4
:1003200000300F6E0E6A0E320C6A0C500812091261
:100330000E500A120F500B120450081205500912E9
:1003400006500A1207500B1208500001886F09501E
:10035000896F0A508A6F0B508B6F8BC0E9FF8AC080
:10036000F4FF89C0F3FF8851E4CF10F0E4CF0FF021
:10037000E4CF0EF0E4CF0DF0E4CF0CF0E4CF0BF0BF
:10038000E4CF0AF0E4CF09F0E4CF08F0E4CF07F0BF
:10039000E4CF06F0E4CF05F0E4CF04F0E4CF03F0BF
:1003A000E4CF02F0E4CF01F0E4CF00F0E4CFD9FFD6
:1003B0001200D9CFE5FFE1CFD9FF00C0E5FF01C0B2
:1003C000E5FF02C0E5FF0FEE80F0000EEF6E0FEECE
:1003D00084F0000EEF6E0FEE83F0000EEF6ED8800B
:1003E000000190AFD890D8B0C5D000019051800FD7
:1003F0007C0FD8B0BFD0FA6AFB6A00019035FA369C
:10040000E834FA36FC0B160FE56E040EFA22000EE5
:10041000FB22E450F96E13EF02F03DEF02F067EFBC
:1004200002F091EF02F0F40E00019125006E016AD6
:10043000000191BF01680C0E0122026A000191BF08
:100440000268000E022200C0F6FF01C0F7FF02C0E2
:10045000F8FF0900F5CF00F00FEE83F000C0EFFFCA
:100460000FEE80F0EFCF00F0008A0FEE80F000C0BA
:10047000EFFF010E0001906F7FD0F40E0001922576
:10048000006E016A000192BF01680C0E0122026A2F
:10049000000192BF0268000E022200C0F6FF01C0F8
:1004A000F7FF02C0F8FF0900F5CF00F00FEE83F070
:1004B00000C0EFFF0FEE80F0EFCF00F000840FEEF2
:1004C00080F000C0EFFF020E0001906F55D0F40ED7
:1004D00000019325006E016A000193BF01680C0EB4
:1004E0000122026A000193BF0268000E022200C0CE
:1004F000F6FF01C0F7FF02C0F8FF0900F5CF00F0DA
:100500000FEE83F000C0EFFF0FEE84F0EFCF00F0AE
:1005100000800FEE84F000C0EFFF030E0001906F2B
:100520002BD0F40E00019425006E016A000194BFE7
:1005300001680C0E0122026A000194BF0268000EDD
:10054000022200C0F6FF01C0F7FF02C0F8FF090059
:10055000F5CF00F00FEE83F000C0EFFF0FEE84F058
:10056000EFCF00F000840FEE84F000C0EFFF000139
:10057000906B02D00001906BE4CF02F0E4CF01F069
:10058000E4CF00F0E4CFD9FF1200006A016A026AEA
:10059000036A1BEC06F0004A012A000EE56EC80E45
:1005A000E56E0150E56E0050E56E32EC04F0046E2D
:1005B000F3CF05F0040EE126000EE56E0A0EE56E9F
:1005C0000550E56E0450E56EA9EC04F0046EF3CF1F
:1005D00005F0040EE126000EE56E0450E56E52ECC7
:1005E00006F0E652E652070EE56ED00EE56E0150BB
:1005F000E56E0050E56E32EC04F0046EF3CF05F0CA
:10060000040EE126000EE56E0A0EE56E0550E56E5D
:100610000450E56EA9EC04F0046EF3CF05F0040E6F
:10062000E126010EE56E0450E56E52EC06F0E6524E
:10063000E652000EE56E0A0EE56E0350E56E0250BE
:10064000E56EA9EC04F0046EF3CF05F0040EE1268C
:10065000020EE56E0450E56E52EC06F0E652E652EC
:10066000000EE56E0A0EE56E0350E56E0250E56E73
:1006700032EC04F0046EF3CF05F0040EE126000E18
:10068000E56E0A0EE56E0550E56E0450E56EA9ECC8
:1006900004F0046EF3CF05F0040EE126030EE56EC0
:1006A0000450E56E52EC06F0E652E652D9EC01F049
:1006B0000050E00A03E101502E0A01E004D0006A74
:1006C000016A024A032A0250640A02E1035001E06F
:1006D00002D0026A036A046A056A066A076A3F0E64
:1006E000E56E800EE56E000EE56E000EE56E0750BD
:1006F000E56E0650E56E0550E56E0450E56E02ECC1
:1007000000F0046EF3CF05F0F4CF06F0E9CF07F068
:10071000080EE126410EE56E700EE56E000EE56EE8
:10072000000EE56E0750E56E0650E56E0550E56E6D
:100730000450E56EA3EC03F0086E080EE1260850A5
:10074000CEE129D71200D9CFE5FFE1CFD9FF00C014
:10075000E5FF01C0E5FF02C0E5FF03C0E5FF04C0FF
:10076000E5FF05C0E5FF06C0E5FF07C0E5FF020E97
:10077000DBCF00F0030EDBCF01F0040EDBCF02F085
:10078000050EDBCF03F0060EDBCF04F0070EDBCF48
:1007900005F0080EDBCF06F0090EDBCF07F00050A6
:1007A0000001806F0150816F0250826F0350836F90
:1007B00004500001846F0550856F0650866F075006
:1007C000876FD880000183AFD8901FE3D8800001E5
:1007D00087AFD8901AE38751800FF36E00018351E1
:1007E000800FF35C0DE182510001865D09E100019B
:1007F00081510001855D04E1000180510001845DAB
:1008000002E2010E1CD0E86A1AD000018351800F69
:10081000F36E00018751800FF35C0DE186510001FA
:10082000825D09E1000185510001815D04E1000163
:1008300084510001805D02E2010E01D0E86AE4CF3C
:1008400007F0E4CF06F0E4CF05F0E4CF04F0E4CF06
:1008500003F0E4CF02F0E4CF01F0E4CF00F0E4CF06
:10086000D9FF1200D9CFE5FFE1CFD9FF00C0E5FFE6
:1008700001C0E5FF02C0E5FF03C0E5FF04C0E5FFDE
:1008800005C0E5FF06C0E5FF07C0E5FF020EDBCFB0
:1008900000F0030EDBCF01F0040EDBCF02F0050EFB
:1008A000DBCF03F0D88001AED890046A0436045040
:1008B00007E0011C066E001C056E054A062A04D0DE
:1008C00000C005F001C006F0D88003AED890006AE1
:1008D0000036005007E0031C076E021C016E014A3F
:1008E000072A04D002C001F003C007F00750E56EEC
:1008F0000150E56E0650E56E0550E56E74EC05F0AE
:10090000016EF3CF02F0040EE1260050041A0450E9
:100910000AE0021C036E011C006E004A032A03C099
:10092000F3FF005003D002C0F3FF0150E4CF07F003
:10093000E4CF06F0E4CF05F0E4CF04F0E4CF03F019
:10094000E4CF02F0E4CF01F0E4CF00F0E4CFD9FF30
:100950001200D9CFE5FFE1CFD9FF00C0E5FF01C00C
:10096000E5FF02C0E5FF03C0E5FF04C0E5FF05C0E9
:10097000E5FF06C0E5FF020EDBCF00F0030EDBCF84
:1009800001F0040EDBCF02F0050EDBCF03F0D880C0
:1009900001AED890046A0436045007E0011C066ECC
:1009A000001C056E054A062A04D000C005F001C0EF
:1009B00006F0D88003AED89007E3031C016E021C3A
:1009C000006E004A012A04D002C000F003C001F00A
:1009D0000150E56E0050E56E0650E56E0550E56E7F
:1009E00017EC05F0006EF3CF01F0040EE126045081
:1009F0000AE0011C036E001C026E024A032A03C0B7
:100A0000F3FF025003D001C0F3FF0050E4CF06F023
:100A1000E4CF05F0E4CF04F0E4CF03F0E4CF02F03C
:100A2000E4CF01F0E4CF00F0E4CFD9FF1200D9CF3A
:100A3000E5FFE1CFD9FF00C0E5FF01C0E5FF02C03F
:100A4000E5FF03C0E5FF04C0E5FF05C0E5FF06C004
:100A5000E5FF020EDBCF00F0030EDBCF01F0040E4A
:100A6000DBCF02F0050EDBCF03F0046A056A03500A
:100A7000800BE844066E065011E102500226033650
:100A80000350015C02E10250005C04E2D8900332A2
:100A9000023204D0052A05C004F0E9D70350015CF6
:100AA00002E10250005C04E30250005E0350015A70
:100AB000D8900332023204C005F004060550EEE17E
:100AC00001C0F3FF0050E4CF06F0E4CF05F0E4CF1F
:100AD00004F0E4CF03F0E4CF02F0E4CF01F0E4CF80
:100AE00000F0E4CFD9FF1200D9CFE5FFE1CFD9FF65
:100AF00000C0E5FF01C0E5FF02C0E5FF03C0E5FF60
:100B000004C0E5FF05C0E5FF06C0E5FF07C0E5FF3F
:100B1000020EDBCF00F0030EDBCF01F0040EDBCFC3
:100B200002F0050EDBCF03F0046A056A100E066EB4
:100B30000150800BE844076E005000260136045037
:100B4000042605360750D8A404800350055C02E152
:100B50000250045C05E30250045E0350055A008015
:100B60000604076E07C006F00750E2E101C0F3FF7C
:100B70000050E4CF07F0E4CF06F0E4CF05F0E4CF77
:100B800004F0E4CF03F0E4CF02F0E4CF01F0E4CFCF
:100B900000F0E4CFD9FF120011EEFFF021EEFFF0DC
:100BA000F86AA68EA69C040EF66E0D0EF76E000E69
:100BB000F86E0900F5CF05F00900F5CF06F034D046
:100BC0000900F5CF00F00900F5CF01F00900F5CFDD
:100BD00002F009000900F5CFE9FF0900F5CFEAFFAF
:100BE000090009000900F5CF03F00900F5CF04F072
:100BF00009000900F6CF07F0F7CF08F0F8CF09F0A9
:100C000000C0F6FF01C0F7FF02C0F8FF03D00900E3
:100C1000F5CFEEFF0306FBE20406F9E207C0F6FF9C
:100C200008C0F7FF09C0F8FF0506CAE20606C8E2D9
:100C3000C5EC02F0FFD7D9CFE5FFE1CFD9FF00C067
:100C4000E5FF0FEE92F0EFCF00F000940FEE92F080
:100C500000C0EFFF0FEE92F0EFCF00F0009A0FEE22
:100C600092F000C0EFFF0FEE96F0EFCF00F0009093
:100C70000FEE96F000C0EFFF0FEE96F0EFCF00F012
:100C800000940FEE96F000C0EFFF0FEEC1F00E0ED5
:100C9000EF6E0FEE95F0000EEF6EE4CF00F0E4CFB4
:100CA000D9FF1200D9CFE5FFE1CFD9FF00C0E5FFA2
:100CB00001C0E5FF020EDBCF00F0030EDBCF01F039
:100CC000015002E100C091F00150010A02E100C0B0
:100CD00092F00150020A02E100C093F00150030AB1
:100CE00002E100C094F0E4CF01F0E4CF00F0E4CFE3
:100CF000D9FF12003F065B4F666D7D077F6F777CE3
:100D0000395E79710100120D0000950000000100AC
:040D100000000000DF
:020000040030CA
:0100010002FC
:0100030000FC
:020005008381F5
:00000001FF
