:020000040000FA
:1000000002EF09F0D9CFE5FFE1CFD9FF00C0E5FF4E
:1000100001C0E5FF02C0E5FF03C0E5FF04C0E5FF46
:1000200005C0E5FF06C0E5FF07C0E5FF08C0E5FF26
:10003000020EDBCF00F0030EDBCF01F0040EDBCFAE
:1000400002F0050EDBCF03F0000EE56E82EC09F046
:10005000E652046A056A066A076A0350E56E0250B2
:10006000E56E0150E56E0050E56E0750E56E0650F6
:10007000E56E0550E56E0450E56E0FEC08F0086E75
:10008000080EE12608501CE03F0EE56E800EE56E7E
:10009000000EE56E000EE56E0750E56E0650E56E4B
:1000A0000550E56E0450E56E38EC06F0046EF3CFB3
:1000B00005F0F4CF06F0E9CF07F0080EE126CDD722
:1000C000010EE56E82EC09F0E652046A056A066AE2
:1000D000076A0350E56E0250E56E0150E56E005070
:1000E000E56E0750E56E0650E56E0550E56E04506E
:1000F000E56E0FEC08F0086E080EE12608501CE0D3
:100100003F0EE56E800EE56E000EE56E000EE56EAC
:100110000750E56E0650E56E0550E56E0450E56E3D
:1001200038EC06F0046EF3CF05F0F4CF06F0E9CF1B
:1001300007F0080EE126CDD7020EE56E82EC09F03D
:10014000E652046A056A066A076A0350E56E0250C1
:10015000E56E0150E56E0050E56E0750E56E065005
:10016000E56E0550E56E0450E56E0FEC08F0086E84
:10017000080EE12608501CE03F0EE56E800EE56E8D
:10018000000EE56E000EE56E0750E56E0650E56E5A
:100190000550E56E0450E56E38EC06F0046EF3CFC2
:1001A00005F0F4CF06F0E9CF07F0080EE126CDD731
:1001B000030EE56E82EC09F0E652046A056A066AEF
:1001C000076A0350E56E0250E56E0150E56E00507F
:1001D000E56E0750E56E0650E56E0550E56E04507D
:1001E000E56E0FEC08F0086E080EE12608501CE0E2
:1001F0003F0EE56E800EE56E000EE56E000EE56EBC
:100200000750E56E0650E56E0550E56E0450E56E4C
:1002100038EC06F0046EF3CF05F0F4CF06F0E9CF2A
:1002200007F0080EE126CDD7040EE56E82EC09F04A
:10023000E652046A056A066A076A0350E56E0250D0
:10024000E56E0150E56E0050E56E0750E56E065014
:10025000E56E0550E56E0450E56E0FEC08F0086E93
:10026000080EE12608501CE03F0EE56E800EE56E9C
:10027000000EE56E000EE56E0750E56E0650E56E69
:100280000550E56E0450E56E38EC06F0046EF3CFD1
:1002900005F0F4CF06F0E9CF07F0080EE126CDD740
:1002A000050EE56E82EC09F0E652046A056A066AFC
:1002B000076A0350E56E0250E56E0150E56E00508E
:1002C000E56E0750E56E0650E56E0550E56E04508C
:1002D000E56E0FEC08F0086E080EE12608501CE0F1
:1002E0003F0EE56E800EE56E000EE56E000EE56ECB
:1002F0000750E56E0650E56E0550E56E0450E56E5C
:1003000038EC06F0046EF3CF05F0F4CF06F0E9CF39
:1003100007F0080EE126CDD7060EE56E82EC09F057
:10032000E652046A056A066A076A0350E56E0250DF
:10033000E56E0150E56E0050E56E0750E56E065023
:10034000E56E0550E56E0450E56E0FEC08F0086EA2
:10035000080EE12608501CE03F0EE56E800EE56EAB
:10036000000EE56E000EE56E0750E56E0650E56E78
:100370000550E56E0450E56E38EC06F0046EF3CFE0
:1003800005F0F4CF06F0E9CF07F0080EE126CDD74F
:10039000070EE56E82EC09F0E652046A056A066A09
:1003A000076A0350E56E0250E56E0150E56E00509D
:1003B000E56E0750E56E0650E56E0550E56E04509B
:1003C000E56E0FEC08F0086E080EE12608501CE000
:1003D0003F0EE56E800EE56E000EE56E000EE56EDA
:1003E0000750E56E0650E56E0550E56E0450E56E6B
:1003F00038EC06F0046EF3CF05F0F4CF06F0E9CF49
:1004000007F0080EE126CDD7000EE56E51EC09F09D
:10041000E652046A056A066A076A0350E56E0250EE
:10042000E56E0150E56E0050E56E0750E56E065032
:10043000E56E0550E56E0450E56E0FEC08F0086EB1
:10044000080EE12608501CE03F0EE56E800EE56EBA
:10045000000EE56E000EE56E0750E56E0650E56E87
:100460000550E56E0450E56E38EC06F0046EF3CFEF
:1004700005F0F4CF06F0E9CF07F0080EE126CDD75E
:10048000010EE56E51EC09F0E652046A056A066A4F
:10049000076A0350E56E0250E56E0150E56E0050AC
:1004A000E56E0750E56E0650E56E0550E56E0450AA
:1004B000E56E0FEC08F0086E080EE12608501CE00F
:1004C0003F0EE56E800EE56E000EE56E000EE56EE9
:1004D0000750E56E0650E56E0550E56E0450E56E7A
:1004E00038EC06F0046EF3CF05F0F4CF06F0E9CF58
:1004F00007F0080EE126CDD7020EE56E51EC09F0AB
:10050000E652046A056A066A076A0350E56E0250FD
:10051000E56E0150E56E0050E56E0750E56E065041
:10052000E56E0550E56E0450E56E0FEC08F0086EC0
:10053000080EE12608501CE03F0EE56E800EE56EC9
:10054000000EE56E000EE56E0750E56E0650E56E96
:100550000550E56E0450E56E38EC06F0046EF3CFFE
:1005600005F0F4CF06F0E9CF07F0080EE126CDD76D
:10057000030EE56E51EC09F0E652046A056A066A5C
:10058000076A0350E56E0250E56E0150E56E0050BB
:10059000E56E0750E56E0650E56E0550E56E0450B9
:1005A000E56E0FEC08F0086E080EE12608501CE01E
:1005B0003F0EE56E800EE56E000EE56E000EE56EF8
:1005C0000750E56E0650E56E0550E56E0450E56E89
:1005D00038EC06F0046EF3CF05F0F4CF06F0E9CF67
:1005E00007F0080EE126CDD7040EE56E51EC09F0B8
:1005F000E652046A056A066A076A0350E56E02500D
:10060000E56E0150E56E0050E56E0750E56E065050
:10061000E56E0550E56E0450E56E0FEC08F0086ECF
:10062000080EE12608501CE03F0EE56E800EE56ED8
:10063000000EE56E000EE56E0750E56E0650E56EA5
:100640000550E56E0450E56E38EC06F0046EF3CF0D
:1006500005F0F4CF06F0E9CF07F0080EE126CDD77C
:10066000050EE56E51EC09F0E652046A056A066A69
:10067000076A0350E56E0250E56E0150E56E0050CA
:10068000E56E0750E56E0650E56E0550E56E0450C8
:10069000E56E0FEC08F0086E080EE12608501CE02D
:1006A0003F0EE56E800EE56E000EE56E000EE56E07
:1006B0000750E56E0650E56E0550E56E0450E56E98
:1006C00038EC06F0046EF3CF05F0F4CF06F0E9CF76
:1006D00007F0080EE126CDD7060EE56E51EC09F0C5
:1006E000E652046A056A066A076A0350E56E02501C
:1006F000E56E0150E56E0050E56E0750E56E065060
:10070000E56E0550E56E0450E56E0FEC08F0086EDE
:10071000080EE12608501CE03F0EE56E800EE56EE7
:10072000000EE56E000EE56E0750E56E0650E56EB4
:100730000550E56E0450E56E38EC06F0046EF3CF1C
:1007400005F0F4CF06F0E9CF07F0080EE126CDD78B
:10075000070EE56E51EC09F0E652046A056A066A76
:10076000076A0350E56E0250E56E0150E56E0050D9
:10077000E56E0750E56E0650E56E0550E56E0450D7
:10078000E56E0FEC08F0086E080EE12608501CE03C
:100790003F0EE56E800EE56E000EE56E000EE56E16
:1007A0000750E56E0650E56E0550E56E0450E56EA7
:1007B00038EC06F0046EF3CF05F0F4CF06F0E9CF85
:1007C00007F0080EE126CDD7E4CF08F0E4CF07F01C
:1007D000E4CF06F0E4CF05F0E4CF04F0E4CF03F07B
:1007E000E4CF02F0E4CF01F0E4CF00F0E4CFD9FF92
:1007F0001200D9CFE5FFE1CFD9FF00C0E5FF01C06E
:10080000E5FF02C0E5FF03C0E5FF04C0E5FF05C04A
:10081000E5FF06C0E5FF07C0E5FF08C0E5FF020EE3
:10082000DBCF00F0030EDBCF01F0040EDBCF02F0D4
:10083000050EDBCF03F0030EE56E82EC09F0E65205
:10084000040EE56E82EC09F0E652046A056A066A57
:10085000076A0350E56E0250E56E0150E56E0050E8
:10086000E56E0750E56E0650E56E0550E56E0450E6
:10087000E56E0FEC08F0086E080EE12608501CE04B
:100880003F0EE56E800EE56E000EE56E000EE56E25
:100890000750E56E0650E56E0550E56E0450E56EB6
:1008A00038EC06F0046EF3CF05F0F4CF06F0E9CF94
:1008B00007F0080EE126CDD7050EE56E82EC09F0B3
:1008C000E652020EE56E82EC09F0E652046A056A11
:1008D000066A076A0350E56E0250E56E0150E56E48
:1008E0000050E56E0750E56E0650E56E0550E56E6A
:1008F0000450E56E0FEC08F0086E080EE126085073
:100900001CE03F0EE56E800EE56E000EE56E000EFB
:10091000E56E0750E56E0650E56E0550E56E045035
:10092000E56E38EC06F0046EF3CF05F0F4CF06F078
:10093000E9CF07F0080EE126CDD7060EE56E82EC72
:1009400009F0E652010EE56E82EC09F0E652046A07
:10095000056A066A076A0350E56E0250E56E0150AB
:10096000E56E0050E56E0750E56E0650E56E0550E9
:10097000E56E0450E56E0FEC08F0086E080EE126F7
:1009800008501CE03F0EE56E800EE56E000EE56E31
:10099000000EE56E0750E56E0650E56E0550E56EFB
:1009A0000450E56E38EC06F0046EF3CF05F0F4CF9A
:1009B00006F0E9CF07F0080EE126CDD7070EE56E69
:1009C00082EC09F0E652000EE56E82EC09F0E65288
:1009D000046A056A066A076A0350E56E0250E56E0E
:1009E0000150E56E0050E56E0750E56E0650E56E6D
:1009F0000550E56E0450E56E0FEC08F0086E080E29
:100A0000E12608501CE03F0EE56E800EE56E000EFC
:100A1000E56E000EE56E0750E56E0650E56E05507A
:100A2000E56E0450E56E38EC06F0046EF3CF05F089
:100A3000F4CF06F0E9CF07F0080EE126CDD7030E7C
:100A4000E56E51EC09F0E652040EE56E51EC09F04A
:100A5000E652046A056A066A076A0350E56E0250A8
:100A6000E56E0150E56E0050E56E0750E56E0650EC
:100A7000E56E0550E56E0450E56E0FEC08F0086E6B
:100A8000080EE12608501CE03F0EE56E800EE56E74
:100A9000000EE56E000EE56E0750E56E0650E56E41
:100AA0000550E56E0450E56E38EC06F0046EF3CFA9
:100AB00005F0F4CF06F0E9CF07F0080EE126CDD718
:100AC000050EE56E51EC09F0E652020EE56E51ECB2
:100AD00009F0E652046A056A066A076A0350E56E81
:100AE0000250E56E0150E56E0050E56E0750E56E70
:100AF0000650E56E0550E56E0450E56E0FEC08F00B
:100B0000086E080EE12608501CE03F0EE56E800ED0
:100B1000E56E000EE56E000EE56E0750E56E0650C0
:100B2000E56E0550E56E0450E56E38EC06F0046E97
:100B3000F3CF05F0F4CF06F0E9CF07F0080EE12679
:100B4000CDD7060EE56E51EC09F0E652010EE56ECA
:100B500051EC09F0E652046A056A066A076A035016
:100B6000E56E0250E56E0150E56E0050E56E0750EF
:100B7000E56E0650E56E0550E56E0450E56E0FEC2F
:100B800008F0086E080EE12608501CE03F0EE56EE6
:100B9000800EE56E000EE56E000EE56E0750E56E08
:100BA0000650E56E0550E56E0450E56E38EC06F033
:100BB000046EF3CF05F0F4CF06F0E9CF07F0080E8E
:100BC000E126CDD7000EE56E51EC09F0E652070E96
:100BD000E56E51EC09F0E652046A056A066A076A96
:100BE0000350E56E0250E56E0150E56E0050E56E73
:100BF0000750E56E0650E56E0550E56E0450E56E53
:100C00000FEC08F0086E080EE12608501CE03F0EBD
:100C1000E56E800EE56E000EE56E000EE56E075087
:100C2000E56E0650E56E0550E56E0450E56E38EC55
:100C300006F0046EF3CF05F0F4CF06F0E9CF07F02D
:100C4000080EE126CDD7E4CF08F0E4CF07F0E4CFDB
:100C500006F0E4CF05F0E4CF04F0E4CF03F0E4CFF6
:100C600002F0E4CF01F0E4CF00F0E4CFD9FF1200AE
:100C7000D9CFE5FFE1CFD9FF00C0E5FF01C0E5FF17
:100C800002C0E5FF03C0E5FF04C0E5FF05C0E5FFC6
:100C900006C0E5FF07C0E5FF08C0E5FF09C0E5FFA6
:100CA0000AC0E5FF0BC0E5FF0CC0E5FF0DC0E5FF86
:100CB0000EC0E5FF0FC0E5FF10C0E5FF020EDBCF61
:100CC00000F0030EDBCF01F0040EDBCF02F0050EC7
:100CD000DBCF03F0060EDBCF04F0070EDBCF05F011
:100CE000080EDBCF06F0090EDBCF07F0086A096AB1
:100CF0000A6A0B6A00500001886F0150896F025028
:100D00008A6F03508B6F045000018C6F05508D6FFC
:100D100006508E6F07508F6F0001885189118A111C
:100D20008B1109E18FC0E9FF8EC0F4FF8DC0F3FF86
:100D300000018C514FD100018C518D118E118F11FA
:100D400009E18BC0E9FF8AC0F4FF89C0F3FF00010D
:100D5000885140D100018A358B35006E016A013619
:100D6000026A036A016A026A036A00018E358F35DE
:100D7000026E190F046E000E0320800FF36E0150F7
:100D8000800FF35C02E10050045C09E28BC0E9FFD4
:100D90008AC0F4FF89C0F3FF000188511BD10050C5
:100DA000190F046E000E0120800FF36E0350800FA8
:100DB000F35C02E10250045C09E28FC0E9FF8EC0DF
:100DC000F4FF8DC0F3FF00018C5104D10001885164
:100DD000046E8951056E7F0E8A15066E076A068EAF
:100DE00000018C510C6E8D510D6E7F0E8E150E6EA6
:100DF0000F6A0E8E00018B51800BE844106E10506C
:100E00000AE0071E061E051E046C05E1052A03E123
:100E1000062AD8B4072A00018F51800BE844106ECF
:100E200010500AE00F1E0E1E0D1E0C6C05E10D2A5F
:100E300003E10E2AD8B40F2A0350800FF36E01503D
:100E4000800FF35C02E10050025C1BE20250005C88
:100E5000106E03500158105032E00BE6E86CD89049
:100E60000FBED8800F320E320D320C32010FF8E374
:100E700026D0D8900C360D360E360F36010FFAE319
:100E80001ED00050025C106E01500358105013E049
:100E90000BE6E86CD89007BED880073206320532E0
:100EA0000432010FF8E307D0D89004360536063631
:100EB0000736010FFAE302C000F003C001F00C5046
:100EC00004260D5005220E5006220F500722D8800E
:100ED00007AED89010E3071E061E051E046C05E140
:100EE000052A03E1062AD8B4072A086A096A0A6AA9
:100EF000800E0B6E0AD0045005100610071005E195
:100F0000E96AF46AF36AE86A65D00450026E055033
:100F1000036E06500C6E07500D6E000E0D5C08E15E
:100F2000800E0C5C05E1000E035C02E1000E025C29
:100F300009E204500426053606360736FF0E002661
:100F40000122E3D70450026E0550036E06500C6E6A
:100F500007500D6E10E004A006D0020E0426000E0D
:100F600005220622072207340732063205320432F0
:100F7000004A012AE7D70250046E0350056E7F0E27
:100F80000C14066E0D50076EE86A013000300F6ECB
:100F90000E6A0E320C6A0C50081209120E500A1218
:100FA0000F500B12045008120550091206500A1275
:100FB00007500B1208500001886F0950896F0A50C2
:100FC0008A6F0B508B6F8BC0E9FF8AC0F4FF89C01A
:100FD000F3FF8851E4CF10F0E4CF0FF0E4CF0EF030
:100FE000E4CF0DF0E4CF0CF0E4CF0BF0E4CF0AF047
:100FF000E4CF09F0E4CF08F0E4CF07F0E4CF06F047
:10100000E4CF05F0E4CF04F0E4CF03F0E4CF02F046
:10101000E4CF01F0E4CF00F0E4CFD9FF1200D9CF44
:10102000E5FFE1CFD9FF00C0E5FF01C0E5FF02C049
:10103000E5FF03C0E5FF04C0E5FF05C0E5FF06C00E
:10104000E5FF07C0E5FF020EDBCF00F0030EDBCFAC
:1010500001F0040EDBCF02F0050EDBCF03F0060E2D
:10106000DBCF04F0070EDBCF05F0080EDBCF06F078
:10107000090EDBCF07F000500001806F0150816F37
:101080000250826F0350836F04500001846F05503B
:10109000856F0650866F0750876FD880000183AF39
:1010A000D8901FE3D880000187AFD8901AE387510A
:1010B000800FF36E00018351800FF35C0DE18251CC
:1010C0000001865D09E1000181510001855D04E1B7
:1010D000000180510001845D02E2010E1CD0E86A2B
:1010E0001AD000018351800FF36E00018751800FE9
:1010F000F35C0DE186510001825D09E1000185513B
:101100000001815D04E1000184510001805D02E283
:10111000010E01D0E86AE4CF07F0E4CF06F0E4CF97
:1011200005F0E4CF04F0E4CF03F0E4CF02F0E4CF25
:1011300001F0E4CF00F0E4CFD9FF1200B3EC09F0E6
:10114000430EE56EFA0EE56E000EE56E000EE56EDE
:1011500002EC00F0040EE126430EE56EFA0EE56E99
:10116000000EE56E000EE56E02EC00F0040EE126C6
:10117000430EE56EFA0EE56E000EE56E000EE56EAE
:1011800002EC00F0040EE126430EE56EFA0EE56E69
:10119000000EE56E000EE56E02EC00F0040EE12696
:1011A000430EE56EFA0EE56E000EE56E000EE56E7E
:1011B000F9EC03F0040EE126430EE56EFA0EE56E3F
:1011C000000EE56E000EE56EF9EC03F0040EE1266C
:1011D000430EE56EFA0EE56E000EE56E000EE56E4E
:1011E000F9EC03F0040EE126430EE56EFA0EE56E0F
:1011F000000EE56E000EE56EF9EC03F0040EE1263C
:101200009FD7120011EEFFF021EEFFF0F86AA68ED4
:10121000A69C840EF66E130EF76E000EF86E090093
:10122000F5CF05F00900F5CF06F034D00900F5CF71
:1012300000F00900F5CF01F00900F5CF02F0090038
:101240000900F5CFE9FF0900F5CFEAFF0900090021
:101250000900F5CF03F00900F5CF04F009000900FB
:10126000F6CF07F0F7CF08F0F8CF09F000C0F6FF8F
:1012700001C0F7FF02C0F8FF03D00900F5CFEEFF71
:101280000306FBE20406F9E207C0F6FF08C0F7FF19
:1012900009C0F8FF0506CAE20606C8E29EEC08F09F
:1012A000FFD7D9CFE5FFE1CFD9FF00C0E5FF01C0EF
:1012B000E5FF02C0E5FF020EDBCF00F00FEE83F08A
:1012C000EFCF01F0010E026E00500BE006E6E86C75
:1012D000D8900236010FFDE304D0D8900232010FFE
:1012E000FDE30250006E005001120FEE83F001C0CA
:1012F000EFFFE4CF02F0E4CF01F0E4CF00F0E4CF61
:10130000D9FF1200D9CFE5FFE1CFD9FF00C0E5FF3B
:1013100001C0E5FF02C0E5FF020EDBCF00F00FEEDB
:1013200083F0EFCF01F0010E026E00500BE006E6F5
:10133000E86CD8900236010FFDE304D0D890023259
:10134000010FFDE3021C006E005001160FEE83F04A
:1013500001C0EFFFE4CF02F0E4CF01F0E4CF00F0F2
:10136000E4CFD9FF1200D9CFE5FFE1CFD9FF0FEECF
:1013700095F0000EEF6E0FEE83F0FF0EEF6EE4CFF0
:10138000D9FF12000100921300009000000001003C
:041390000000000059
:020000040030CA
:0100010002FC
:0100030000FC
:020005008381F5
:00000001FF
