:020000040000FA
:1000000070EF06F0D9CFE5FFE1CFD9FF00C0E5FFE3
:1000100001C0E5FF02C0E5FF03C0E5FF04C0E5FF46
:1000200005C0E5FF06C0E5FF07C0E5FF08C0E5FF26
:1000300009C0E5FF0AC0E5FF0BC0E5FF0CC0E5FF06
:100040000DC0E5FF020EDBCF00F0030EDBCF01F0A9
:10005000040EDBCF02F0050EDBCF03F0060EDBCF84
:1000600004F0070EDBCF05F0080EDBCF06F0090E1B
:10007000DBCF07F0D88003AED890086A0836085066
:100080000FE0031C0C6E021C0B6E011C0A6E001CA0
:10009000096E092A0DE10A2A0BE10B4A0C2A08D045
:1000A00000C009F001C00AF002C00BF003C00CF060
:1000B000D88007AED890006A003600500FE0071CC9
:1000C0000D6E061C036E051C026E041C016E012AD7
:1000D0000DE1022A0BE1034A0D2A08D004C001F009
:1000E00005C002F006C003F007C00DF00D50E56E2C
:1000F0000350E56E0250E56E0150E56E0C50E56E62
:100100000B50E56E0A50E56E0950E56E44EC02F0C6
:10011000016EF3CF02F0F4CF03F0E9CF04F0080E44
:10012000E1260050081A085016E0041C076E031C54
:10013000066E021C056E011C006E002A04E1052AF1
:1001400002E1064A072A07C0E9FF06C0F4FF05C01E
:10015000F3FF005007D004C0E9FF03C0F4FF02C062
:10016000F3FF0150E4CF0DF0E4CF0CF0E4CF0BF03F
:10017000E4CF0AF0E4CF09F0E4CF08F0E4CF07F0D1
:10018000E4CF06F0E4CF05F0E4CF04F0E4CF03F0D1
:10019000E4CF02F0E4CF01F0E4CF00F0E4CFD9FFE8
:1001A0001200D9CFE5FFE1CFD9FF00C0E5FF01C0C4
:1001B000E5FF02C0E5FF03C0E5FF04C0E5FF05C0A1
:1001C000E5FF06C0E5FF07C0E5FF08C0E5FF09C081
:1001D000E5FF006A016A026A0FEE81F0EFCF03F0DB
:1001E0000F0E03120FEE81F003C0EFFF0FEE81F050
:1001F000EFCF03F0010E046E005005E0E86CD890DC
:100200000436010FFDE3041E045003160FEE81F0C7
:1002100003C0EFFF640E036E0350046E0404036E0C
:100220000350FAE1036A0FEE81F0EFCF04F003C050
:1002300005F0066A040E0526D8B0062A010E076EE0
:10024000000E086E05500FE007E6E86CD890073600
:100250000836010FFCE307D0D89008BED8800832DA
:100260000732010FFAE3096A04500716095008160D
:100270000750081010E103500224046E010E056EB1
:10028000045005E0E86CD8900536010FFDE30550F9
:100290000001811311D003500124046E010E056E7C
:1002A000045005E0E86CD8900536010FFDE3051C0D
:1002B000046E045000018117032A020E035CD8A0CB
:1002C000B2D7012A012A022A022A002A040E005C5F
:1002D000D8A082D7000182510001811903E10001F9
:1002E0008A0705D00A0E00018A6F81C082F00001E2
:1002F0008A5102E182C080F0E4CF09F0E4CF08F037
:10030000E4CF07F0E4CF06F0E4CF05F0E4CF04F04B
:10031000E4CF03F0E4CF02F0E4CF01F0E4CF00F04B
:10032000E4CFD9FF1200D9CFE5FFE1CFD9FF00C05C
:10033000E5FF01C0E5FF02C0E5FF03C0E5FF020ED7
:10034000DBCF00F0030EDBCF01F0010EE56ED0EC49
:1003500005F0E652800EE56ED0EC05F0E652030E95
:10036000E56EE80EE56E0150E56E0050E56ED4ECEA
:1003700002F0026EF3CF03F0040EE126000EE56EEC
:100380000A0EE56E0350E56E0250E56E4BEC03F08D
:10039000026EF3CF03F0040EE126300E0226025067
:1003A000E56E80EC05F0E652000EE56E640EE56E3B
:1003B0000150E56E0050E56ED4EC02F0026EF3CF12
:1003C00003F0040EE126000EE56E0A0EE56E035002
:1003D000E56E0250E56E4BEC03F0026EF3CF03F0D6
:1003E000040EE126300E02260250E56E80EC05F088
:1003F000E652000EE56E0A0EE56E0150E56E005005
:10040000E56ED4EC02F0026EF3CF03F0040EE126A9
:10041000000EE56E0A0EE56E0350E56E0250E56EC5
:100420004BEC03F0026EF3CF03F0040EE126300E26
:1004300002260250E56E80EC05F0E6522E0EE56EC7
:1004400080EC05F0E652000EE56E0A0EE56E0150F6
:10045000E56E0050E56E4BEC03F0006EF3CF01F05B
:10046000040EE126300E00260050E56E80EC05F00B
:10047000E652E4CF03F0E4CF02F0E4CF01F0E4CFA2
:1004800000F0E4CFD9FF1200D9CFE5FFE1CFD9FFCB
:1004900000C0E5FF01C0E5FF02C0E5FF03C0E5FFC6
:1004A00004C0E5FF05C0E5FF06C0E5FF07C0E5FFA6
:1004B00008C0E5FF09C0E5FF0AC0E5FF0BC0E5FF86
:1004C0000CC0E5FF0DC0E5FF020EDBCF00F0030E10
:1004D000DBCF01F0040EDBCF02F0050EDBCF03F023
:1004E000060EDBCF04F0070EDBCF05F0080EDBCFE6
:1004F00006F0090EDBCF07F0086A096A0A6A0B6A80
:10050000200E0C6E0350800BE8440D6E0050002648
:100510000136023603360850082609360A360B36ED
:100520000D50D8A4088007500B5C08E106500A5C07
:1005300005E10550095C02E10450085C09E3045040
:10054000085E0550095A06500A5A07500B5A008097
:100550000C040D6E0DC00CF00D50D4E103C0E9FF8A
:1005600002C0F4FF01C0F3FF0050E4CF0DF0E4CF70
:100570000CF0E4CF0BF0E4CF0AF0E4CF09F0E4CFC5
:1005800008F0E4CF07F0E4CF06F0E4CF05F0E4CFC5
:1005900004F0E4CF03F0E4CF02F0E4CF01F0E4CFC5
:1005A00000F0E4CFD9FF1200D9CFE5FFE1CFD9FFAA
:1005B00000C0E5FF01C0E5FF02C0E5FF03C0E5FFA5
:1005C00004C0E5FF05C0E5FF06C0E5FF07C0E5FF85
:1005D000020EDBCF00F0030EDBCF01F0040EDBCF09
:1005E00002F0050EDBCF03F0D88001AED890046A8C
:1005F0000436045007E0011C066E001C056E054A17
:10060000062A04D000C005F001C006F0D88003AE71
:10061000D890006A0036005007E0031C076E021CE9
:10062000016E014A072A04D002C001F003C007F09E
:100630000750E56E0150E56E0650E56E0550E56E1B
:10064000D2EC04F0016EF3CF02F0040EE12600506C
:10065000041A04500AE0021C036E011C006E004ADA
:10066000032A03C0F3FF005003D002C0F3FF015080
:10067000E4CF07F0E4CF06F0E4CF05F0E4CF04F0D8
:10068000E4CF03F0E4CF02F0E4CF01F0E4CF00F0D8
:10069000E4CFD9FF1200D9CFE5FFE1CFD9FF00C0E9
:1006A000E5FF01C0E5FF02C0E5FF03C0E5FF04C0B0
:1006B000E5FF05C0E5FF06C0E5FF020EDBCF00F059
:1006C000030EDBCF01F0040EDBCF02F0050EDBCF13
:1006D00003F0D88001AED890046A0436045007E0D5
:1006E000011C066E001C056E054A062A04D000C0D7
:1006F00005F001C006F0D88003AED89007E3031CD4
:10070000016E021C006E004A012A04D002C000F0F3
:1007100003C001F00150E56E0050E56E0650E56E35
:100720000550E56E75EC04F0006EF3CF01F0040E99
:10073000E12604500AE0011C036E001C026E024A0E
:10074000032A03C0F3FF025003D001C0F3FF00509F
:10075000E4CF06F0E4CF05F0E4CF04F0E4CF03F0FB
:10076000E4CF02F0E4CF01F0E4CF00F0E4CFD9FF12
:100770001200D9CFE5FFE1CFD9FF00C0E5FF01C0EE
:10078000E5FF02C0E5FF03C0E5FF020EDBCF00F08E
:10079000016A0FEECBF0EFCF02F0036A024A032AA0
:1007A0000350E56E0250E56E0150E56E0050E56EB7
:1007B00020EC06F0006EF3CF01F0040EE126000EEF
:1007C000E56E190EE56E0150E56E0050E56ED2EC57
:1007D00004F0006EF3CF01F0040EE126030E0116C3
:1007E000D8900130036E0030026ED890033202328E
:1007F0000FEEBBF002C0EFFF0FEEBAF0EFCF02F04A
:10080000030E0016016A0038F00B016E015002124F
:100810000FEEBAF002C0EFFFE4CF03F0E4CF02F036
:10082000E4CF01F0E4CF00F0E4CFD9FF1200D9CF3C
:10083000E5FFE1CFD9FF00C0E5FF01C0E5FF02C041
:10084000E5FF03C0E5FF020EDBCF00F0016A0FEE0B
:10085000CBF0EFCF02F0036A024A032A0350E56EA1
:100860000250E56E0150E56E0050E56E20EC06F09A
:10087000006EF3CF01F0040EE126000EE56E190EB6
:10088000E56E0150E56E0050E56ED2EC04F0006EAE
:10089000F3CF01F0040EE126030E0116D8900130CB
:1008A000036E0030026ED890033202320FEEBEF0BB
:1008B00002C0EFFF0FEEBDF0EFCF02F0030E001607
:1008C000016A0038F00B016E015002120FEEBDF00C
:1008D00002C0EFFFE4CF03F0E4CF02F0E4CF01F079
:1008E000E4CF00F0E4CFD9FF1200D9CFE5FFE1CF8C
:1008F000D9FF00C0E5FF01C0E5FF02C0E5FF03C06E
:10090000E5FF04C0E5FF05C0E5FF06C0E5FF020EF8
:10091000DBCF00F0030EDBCF01F0040EDBCF02F0E3
:10092000050EDBCF03F0046A056A0350800BE84430
:10093000066E065011E10250022603360350015C98
:1009400002E10250005C04E2D8900332023204D08B
:10095000052A05C004F0E9D70350015C02E102500A
:10096000005C04E30250005E0350015AD890033249
:10097000023204C005F004060550EEE101C0F3FFA9
:100980000050E4CF06F0E4CF05F0E4CF04F0E4CF6C
:1009900003F0E4CF02F0E4CF01F0E4CF00F0E4CFC5
:1009A000D9FF1200D9CFE5FFE1CFD9FF00C0E5FFA5
:1009B00001C0E5FF02C0E5FF03C0E5FF04C0E5FF9D
:1009C00005C0E5FF06C0E5FF07C0E5FF020EDBCF6F
:1009D00000F0030EDBCF01F0040EDBCF02F0050EBA
:1009E000DBCF03F0046A056A100E066E0150800B1F
:1009F000E844076E005000260136045004260536F0
:100A00000750D8A404800350055C02E10250045C46
:100A100005E30250045E0350055A00800604076E89
:100A200007C006F00750E2E101C0F3FF0050E4CF39
:100A300007F0E4CF06F0E4CF05F0E4CF04F0E4CF14
:100A400003F0E4CF02F0E4CF01F0E4CF00F0E4CF14
:100A5000D9FF1200D9CFE5FFE1CFD9FF00C0E5FFF4
:100A600032EC08F032EC08F032EC08F032EC08F02E
:100A700032EC08F00FEE96F0EFCF00F000900FEEA2
:100A800096F000C0EFFF0FEE96F0EFCF00F000926F
:100A90000FEE96F000C0EFFF0FEE96F0EFCF00F0F4
:100AA00000940FEE96F000C0EFFF0FEE95F0000EF1
:100AB000EF6E0FEEC1F00E0EEF6E380EE56ED0EC5D
:100AC00005F0E652060EE56ED0EC05F0E6520F0E8C
:100AD000E56ED0EC05F0E652030EE56ED0EC05F0C5
:100AE000E652010EE56ED0EC05F0E652800EE56EA2
:100AF000D0EC05F0E652E4CF00F0E4CFD9FF1200CD
:100B0000D9CFE5FFE1CFD9FF00C0E5FF01C0E5FF88
:100B1000020EDBCF00F00FEE84F0EFCF01F001808A
:100B20000FEE84F001C0EFFF0FEE84F0EFCF01F085
:100B300001940FEE84F001C0EFFF0FEE83F000C0D0
:100B4000EFFF0FEE84F0EFCF00F000820FEE84F0A5
:100B500000C0EFFF4CEC08F00FEE84F0EFCF00F098
:100B600000920FEE84F000C0EFFF0FEE84F0EFCFA5
:100B700000F000900FEE84F000C0EFFF0FEE84F065
:100B8000EFCF00F000940FEE84F000C0EFFF4CECCC
:100B900008F0E4CF01F0E4CF00F0E4CFD9FF120079
:100BA000D9CFE5FFE1CFD9FF00C0E5FF01C0E5FFE8
:100BB000020EDBCF00F00FEE84F0EFCF01F00190DA
:100BC0000FEE84F001C0EFFF0FEE84F0EFCF01F0E5
:100BD00001940FEE84F001C0EFFF0FEE83F000C030
:100BE000EFFF0FEE84F0EFCF00F000820FEE84F005
:100BF00000C0EFFF32EC08F00FEE84F0EFCF00F012
:100C000000920FEE84F000C0EFFF0FEE84F0EFCF04
:100C100000F000900FEE84F000C0EFFF0FEE84F0C4
:100C2000EFCF00F000940FEE84F000C0EFFF32EC45
:100C300008F0E4CF01F0E4CF00F0E4CFD9FF1200D8
:100C4000D9CFE5FFE1CFD9FF00C0E5FF01C0E5FF47
:100C500002C0E5FF03C0E5FF020EDBCF00F0030E8C
:100C6000DBCF01F0040EDBCF02F0050EDBCF03F08B
:100C700000500001846F0150856F02500001866FA3
:100C80000350876F0001845100018603F4CF01F007
:100C9000F3CF00F000500001886F0150896F000110
:100CA000845100018703F3CF00F00001855100015A
:100CB0008603F3CF01F00150002600018951002680
:100CC0000050896F89C0F3FF8851E4CF03F0E4CF6F
:100CD00002F0E4CF01F0E4CF00F0E4CFD9FF12003E
:100CE00011EEFFF021EEFFF0F86AA68EA69CDA0E58
:100CF000F66E100EF76E000EF86E0900F5CF05F0D7
:100D00000900F5CF06F034D00900F5CF00F0090056
:100D1000F5CF01F00900F5CF02F009000900F5CF89
:100D2000E9FF0900F5CFEAFF090009000900F5CF46
:100D300003F00900F5CF04F009000900F6CF07F031
:100D4000F7CF08F0F8CF09F000C0F6FF01C0F7FFB9
:100D500002C0F8FF03D00900F5CFEEFF0306FBE267
:100D60000406F9E207C0F6FF08C0F7FF09C0F8FF64
:100D70000506CAE20606C8E2BFEC06F0FFD716EC8D
:100D800008F02AEC05F0F6EC07F003EC07F0270E6C
:100D9000E56E100EE56E47EC07F0E652E652D1EC38
:100DA00000F086EC07F0006EF3CF01F00150E56E25
:100DB0000050E56EC0EC07F0006EF3CF01F0E65294
:100DC000E65264EC08F0640EE56EB9EC03F0E6520E
:100DD0000150E56E0050E56E93EC01F0E652E652EC
:100DE000E80E006EFD0E016E0050FF0F026EFF0E4A
:100DF0000120036E02C000F003C001F00250031096
:100E0000F3E1CDD71200D9CFE5FFE1CFD9FF00C084
:100E1000E5FF0FEE94F0EFCF00F000920FEE94F0AC
:100E200000C0EFFF0FEE94F0EFCF00F000940FEE54
:100E300094F000C0EFFF0FEECAF0EFCF00F0030E0A
:100E400000120FEECAF000C0EFFF0FEECAF0EFCFB6
:100E500000F000840FEECAF000C0EFFF0FEEBDF00F
:100E6000EFCF00F00C0E00120FEEBDF000C0EFFF50
:100E70000FEEBAF0EFCF00F00C0E00120FEEBAF04A
:100E800000C0EFFFE4CF00F0E4CFD9FF1200D9CFCC
:100E9000E5FFE1CFD9FF00C0E5FF01C0E5FF02C0DB
:100EA000E5FF03C0E5FF020EDBCF00F0030EDBCF52
:100EB00001F0026A036A0350E56E0250E56E0150CC
:100EC000E56E0050E56E000EE56E010EE56EE80E73
:100ED000E56E480EE56E02EC00F0006EF3CF01F017
:100EE000F4CF02F0E9CF03F0080EE12600060FEE82
:100EF000CBF000C0EFFFE4CF03F0E4CF02F0E4CF8B
:100F000001F0E4CF00F0E4CFD9FF1200D9CFE5FF24
:100F1000E1CFD9FF00C0E5FF01C0E5FF02C0E5FF5A
:100F200003C0E5FF0FEEC2F0EFCF00F000820FEE3E
:100F3000C2F000C0EFFF0FEEC2F0EFCF00F000B242
:100F4000FAD70FEEC4F0EFCF00F0016A0050016E47
:100F5000006A0FEEC3F0EFCF02F0036A02500026E2
:100F60000350012201C0F3FF0050E4CF03F0E4CFAF
:100F700002F0E4CF01F0E4CF00F0E4CFD9FF12009B
:100F8000D9CFE5FFE1CFD9FF00C0E5FF01C0E5FF04
:100F9000020EDBCF00F0030EDBCF01F00150E56E57
:100FA0000050E56E010EE56EC40EE56E20EC06F015
:100FB000006EF3CF01F0040EE126000EE56E640E24
:100FC000E56E0150E56E0050E56ED4EC02F0006E67
:100FD000F3CF01F0040EE12601C0F3FF0050E4CF8F
:100FE00001F0E4CF00F0E4CFD9FF1200D9CFE5FF44
:100FF000E1CFD9FF00C0E5FF0FEE92F0EFCF00F098
:1010000000800FEE92F000C0EFFF0FEEC2F0010E75
:10101000EF6E0FEEC1F00E0EEF6E0FEEC0F0AA0EE7
:10102000EF6EE4CF00F0E4CFD9FF1200D9CFE5FF97
:10103000E1CFD9FF00C0E5FF0FEE93F0F00EEF6EA9
:101040000FEEF1F0EFCF00F0009E0FEEF1F000C0D8
:10105000EFFF0FEEC1F00E0EEF6EE4CF00F0E4CF25
:10106000D9FF1200D9CFE5FFE1CFD9FF00C0E5FFDE
:1010700001C0E5FFC80E006E4CEC08F00050016E98
:10108000010601C000F00150F7E1E4CF01F0E4CF28
:1010900000F0E4CFD9FF1200D9CFE5FFE1CFD9FFAF
:1010A00000C0E5FF01C0E5FF190E006E0050016EA3
:1010B000010601C000F00150F9E1E4CF01F0E4CFF6
:1010C00000F0E4CFD9FF1200D9CFE5FFE1CFD9FF7F
:1010D00000018051E4CFD9FF12000100E8100000A8
:0C10E00080000000040000000000000080
:020000040030CA
:0100010002FC
:0100030000FC
:020005008381F5
:00000001FF
