:020000040000FA
:1000000002EF00F011EEFFF021EEFFF0F86AA68E8D
:10001000A69C880EF66E010EF76E000EF86E0900B3
:10002000F5CF05F00900F5CF06F034D00900F5CF83
:1000300000F00900F5CF01F00900F5CF02F009004A
:100040000900F5CFE9FF0900F5CFEAFF0900090033
:100050000900F5CF03F00900F5CF04F0090009000D
:10006000F6CF07F0F7CF08F0F8CF09F000C0F6FFA1
:1000700001C0F7FF02C0F8FF03D00900F5CFEEFF83
:100080000306FBE20406F9E207C0F6FF08C0F7FF2B
:1000900009C0F8FF0506CAE20606C8E296EC00F0C1
:1000A000FFD7D9CFE5FFE1CFD9FF00C0E5FF01C001
:1000B000E5FF02C0E5FF03C0E5FF04C0E5FF05C0A2
:1000C000E5FF06C0E5FF020EDBCF00F0030EDBCF3D
:1000D00001F0026A036A046A030E056E0550066E9B
:1000E000060606C005F00650F9E1042A290E045C54
:1000F000F3E3024A032A0350800FF36E0150800F8E
:10010000F35C02E10050025CE6E3E4CF06F0E4CFEA
:1001100005F0E4CF04F0E4CF03F0E4CF02F0E4CF45
:1001200001F0E4CF00F0E4CFD9FF12000FEE95F01C
:10013000000EEF6E0FEE83F0000EEF6E0FEE83F009
:10014000F80EEF6E0F0EE56EA00EE56E51EC00F0AE
:10015000E652E6520FEE83F0E70EEF6E010EE56E0B
:10016000F40EE56E51EC00F0E652E6520FEE83F02D
:100170001F0EEF6E130EE56E880EE56E51EC00F06B
:10018000E652E652DBD71200010096010000800023
:08019000000001000000000066
:020000040030CA
:0100010002FC
:0100030000FC
:020005008381F5
:00000001FF
