:020000040000FA
:100000001BEF02F0D9CFE5FFE1CFD9FF00C0E5FF3C
:1000100001C0E5FF02C0E5FF0FEE80F0000EEF6EBD
:100020000FEE84F0000EEF6E0FEE83F0000EEF6E19
:10003000D880000184AFD890D8B0C5D000018451D9
:10004000800F7C0FD8B0BFD0FA6AFB6A00018435FC
:10005000FA36E834FA36FC0B680FE56E000EFA2229
:10006000000EFB22E450F96E3CEF00F066EF00F06A
:1000700090EF00F0BAEF00F0660E00018525006EEB
:10008000016A000185BF0168060E0122026A0001B3
:1000900085BF0268000E022200C0F6FF01C0F7FF14
:1000A00002C0F8FF0900F5CF00F00FEE83F000C0AA
:1000B000EFFF0FEE80F0EFCF00F0008A0FEE80F040
:1000C00000C0EFFF010E0001846F7FD0660E0001BB
:1000D0008625006E016A000186BF0168060E0122B6
:1000E000026A000186BF0268000E022200C0F6FF0D
:1000F00001C0F7FF02C0F8FF0900F5CF00F00FEED6
:1001000083F000C0EFFF0FEE80F0EFCF00F000842F
:100110000FEE80F000C0EFFF020E0001846F55D09B
:10012000660E00018725006E016A000187BF016825
:10013000060E0122026A000187BF0268000E022239
:1001400000C0F6FF01C0F7FF02C0F8FF0900F5CFBD
:1001500000F00FEE83F000C0EFFF0FEE84F0EFCF62
:1001600000F000800FEE84F000C0EFFF030E0001EE
:10017000846F2BD0660E00018825006E016A000195
:1001800088BF0168060E0122026A000188BF02686A
:10019000000E022200C0F6FF01C0F7FF02C0F8FF08
:1001A0000900F5CF00F00FEE83F000C0EFFF0FEE77
:1001B00084F0EFCF00F000840FEE84F000C0EFFF7A
:1001C0000001846B02D00001846BE4CF02F0E4CF25
:1001D00001F0E4CF00F0E4CFD9FF1200D9CFE5FF62
:1001E000E1CFD9FF00C0E5FF01C0E5FF02C0E5FF98
:1001F00003C0E5FF04C0E5FF05C0E5FF06C0E5FF5D
:1002000007C0E5FF08C0E5FF09C0E5FF006A016A15
:10021000026A0FEE81F0EFCF03F00F0E03120FEE24
:1002200081F003C0EFFF0FEE81F0EFCF03F0010E7E
:10023000046E005005E0E86CD8900436010FFDE331
:10024000041E045003160FEE81F003C0EFFF640E8E
:10025000036E0350046E0404036E0350FAE1036A54
:100260000FEE81F0EFCF04F003C005F0066A040E34
:100270000526D8B0062A010E076E000E086E05503E
:100280000FE007E6E86CD89007360836010FFCE36C
:1002900007D0D89008BED88008320732010FFAE3A1
:1002A000096A04500716095008160750081010E193
:1002B00003500224046E010E056E045005E0E86C44
:1002C000D8900536010FFDE305500001811311D0D0
:1002D00003500124046E010E056E045005E0E86C25
:1002E000D8900536010FFDE3051C046E0450000193
:1002F0008117032A020E035CD8A0B2D7012A012A73
:10030000022A022A002A040E005CD8A082D700012B
:1003100082510001811903E10001890705D00A0E0D
:100320000001896F81C082F00001895102E182C021
:1003300080F0E4CF09F0E4CF08F0E4CF07F0E4CF99
:1003400006F0E4CF05F0E4CF04F0E4CF03F0E4CF0F
:1003500002F0E4CF01F0E4CF00F0E4CFD9FF1200C7
:100360000FEE92F0000EEF6E0FEE96F0000EEF6EB5
:100370000FEEF1F0EFCF00F0009E0FEEF1F000C0B5
:10038000EFFF0FEEC1F00E0EEF6E0FEE95F0000EC8
:10039000EF6E0FEEF1F0EFCF00F0009E0FEEF1F0F8
:1003A00000C0EFFF0FEEC1F00E0EEF6E0FEE93F0F8
:1003B000F00EEF6E0FEE81F00E0EEF6E0FEE83F08B
:1003C000FF0EEF6E070EE56ED00EE56E6AEC02F0E2
:1003D000E652E652006A016A0FEE83F0EFCF02F0B8
:1003E000010E036E046A00500DE007E6E86CD89039
:1003F00003360436010FFCE305D0D89004320332F3
:10040000010FFCE30350021A0FEE83F002C0EFFF6E
:10041000070EE56ED00EE56E6AEC02F0E652E6528B
:10042000004A012A0150800F800F02E1080E005C93
:10043000D3E3C4D7120011EEFFF021EEFFF0F86A0B
:10044000A68EA69C760EF66E060EF76E000EF86E61
:100450000900F5CF05F00900F5CF06F034D009000A
:10046000F5CF00F00900F5CF01F00900F5CF02F05B
:1004700009000900F5CFE9FF0900F5CFEAFF0900FF
:1004800009000900F5CF03F00900F5CF04F00900D9
:100490000900F6CF07F0F7CF08F0F8CF09F000C059
:1004A000F6FF01C0F7FF02C0F8FF03D00900F5CF47
:1004B000EEFF0306FBE20406F9E207C0F6FF08C000
:1004C000F7FF09C0F8FF0506CAE20606C8E2B0EC6D
:1004D00001F0FFD7D9CFE5FFE1CFD9FF00C0E5FF9D
:1004E00001C0E5FF02C0E5FF03C0E5FF04C0E5FF72
:1004F00005C0E5FF06C0E5FF020EDBCF00F0030EEE
:10050000DBCF01F0026A036A046A030E056E055030
:10051000066E060606C005F00650F9E1042A290E0B
:10052000045CF3E3024A032A0350800FF36E015088
:10053000800FF35C02E10050025CE6E3E4CF06F0DA
:10054000E4CF05F0E4CF04F0E4CF03F0E4CF02F011
:10055000E4CF01F0E4CF00F0E4CFD9FF1200D9CF0F
:10056000E5FFE1CFD9FF00C0E5FF0FEE92F0EFCF3E
:1005700000F000940FEE92F000C0EFFF0FEE92F04B
:10058000EFCF00F0009A0FEE92F000C0EFFF0FEEF9
:1005900096F0EFCF00F000900FEE96F000C0EFFF66
:1005A0000FEE96F0EFCF00F000940FEE96F000C043
:1005B000EFFF0FEEC1F00E0EEF6E0FEE95F0000E96
:1005C000EF6EE4CF00F0E4CFD9FF1200D9CFE5FF02
:1005D000E1CFD9FF00C0E5FF01C0E5FF020EDBCF90
:1005E00000F0030EDBCF01F0015002E100C085F006
:1005F0000150010A02E100C086F00150020A02E146
:1006000000C087F00150030A02E100C088F0E4CF87
:1006100001F0E4CF00F0E4CFD9FF1200D9CFE5FF1D
:10062000E1CFD9FF00C0E5FF0FEE93F0F00EEF6EC3
:100630000FEEF1F0EFCF00F0009E0FEEF1F000C0F2
:10064000EFFF0FEEC1F00E0EEF6EE4CF00F0E4CF3F
:10065000D9FF1200D9CFE5FFE1CFD9FF00018051CA
:10066000E4CFD9FF12003F065B4F666D7D077F6FB9
:10067000777C395E797101008406000080000000FB
:0806800004000000000000006E
:020000040030CA
:0100010002FC
:0100030000FC
:020005008381F5
:00000001FF
